{
  "contractName": "Evaluator",
  "abi": [
    {
      "inputs": [
        {
          "internalType": "contract ERC20TD",
          "name": "_TDAMM",
          "type": "address"
        },
        {
          "internalType": "contract ERC20",
          "name": "_dummyToken",
          "type": "address"
        },
        {
          "internalType": "contract IUniswapV2Factory",
          "name": "_uniswapV2Factory",
          "type": "address"
        },
        {
          "internalType": "address",
          "name": "_WETH",
          "type": "address"
        }
      ],
      "stateMutability": "nonpayable",
      "type": "constructor"
    },
    {
      "anonymous": false,
      "inputs": [
        {
          "indexed": false,
          "internalType": "address",
          "name": "erc20Address",
          "type": "address"
        },
        {
          "indexed": false,
          "internalType": "address",
          "name": "dummyTokenAddress",
          "type": "address"
        },
        {
          "indexed": false,
          "internalType": "address",
          "name": "uniFactoryAddress",
          "type": "address"
        },
        {
          "indexed": false,
          "internalType": "address",
          "name": "wethAddress",
          "type": "address"
        }
      ],
      "name": "constructedCorrectly",
      "type": "event"
    },
    {
      "anonymous": false,
      "inputs": [
        {
          "indexed": false,
          "internalType": "string",
          "name": "ticker",
          "type": "string"
        },
        {
          "indexed": false,
          "internalType": "uint256",
          "name": "supply",
          "type": "uint256"
        }
      ],
      "name": "newRandomTickerAndSupply",
      "type": "event"
    },
    {
      "stateMutability": "payable",
      "type": "fallback"
    },
    {
      "inputs": [],
      "name": "TDAMM",
      "outputs": [
        {
          "internalType": "contract ERC20TD",
          "name": "",
          "type": "address"
        }
      ],
      "stateMutability": "view",
      "type": "function"
    },
    {
      "inputs": [],
      "name": "WETH",
      "outputs": [
        {
          "internalType": "address",
          "name": "",
          "type": "address"
        }
      ],
      "stateMutability": "view",
      "type": "function"
    },
    {
      "inputs": [
        {
          "internalType": "address",
          "name": "",
          "type": "address"
        }
      ],
      "name": "assignedSupply",
      "outputs": [
        {
          "internalType": "uint256",
          "name": "",
          "type": "uint256"
        }
      ],
      "stateMutability": "view",
      "type": "function"
    },
    {
      "inputs": [
        {
          "internalType": "address",
          "name": "",
          "type": "address"
        }
      ],
      "name": "assignedTicker",
      "outputs": [
        {
          "internalType": "string",
          "name": "",
          "type": "string"
        }
      ],
      "stateMutability": "view",
      "type": "function"
    },
    {
      "inputs": [],
      "name": "dummyToken",
      "outputs": [
        {
          "internalType": "contract ERC20",
          "name": "",
          "type": "address"
        }
      ],
      "stateMutability": "view",
      "type": "function"
    },
    {
      "inputs": [
        {
          "internalType": "address",
          "name": "",
          "type": "address"
        },
        {
          "internalType": "uint256",
          "name": "",
          "type": "uint256"
        }
      ],
      "name": "exerciceProgression",
      "outputs": [
        {
          "internalType": "bool",
          "name": "",
          "type": "bool"
        }
      ],
      "stateMutability": "view",
      "type": "function"
    },
    {
      "inputs": [
        {
          "internalType": "address",
          "name": "",
          "type": "address"
        }
      ],
      "name": "hasBeenPaired",
      "outputs": [
        {
          "internalType": "bool",
          "name": "",
          "type": "bool"
        }
      ],
      "stateMutability": "view",
      "type": "function"
    },
    {
      "inputs": [],
      "name": "nextValueStoreRank",
      "outputs": [
        {
          "internalType": "uint256",
          "name": "",
          "type": "uint256"
        }
      ],
      "stateMutability": "view",
      "type": "function"
    },
    {
      "inputs": [
        {
          "internalType": "address",
          "name": "",
          "type": "address"
        }
      ],
      "name": "studentErc20",
      "outputs": [
        {
          "internalType": "contract IRichERC20",
          "name": "",
          "type": "address"
        }
      ],
      "stateMutability": "view",
      "type": "function"
    },
    {
      "inputs": [
        {
          "internalType": "address",
          "name": "",
          "type": "address"
        }
      ],
      "name": "studentExercice",
      "outputs": [
        {
          "internalType": "contract IExerciceSolution",
          "name": "",
          "type": "address"
        }
      ],
      "stateMutability": "view",
      "type": "function"
    },
    {
      "inputs": [
        {
          "internalType": "address",
          "name": "",
          "type": "address"
        }
      ],
      "name": "teachers",
      "outputs": [
        {
          "internalType": "bool",
          "name": "",
          "type": "bool"
        }
      ],
      "stateMutability": "view",
      "type": "function"
    },
    {
      "inputs": [],
      "name": "uniswapV2Factory",
      "outputs": [
        {
          "internalType": "contract IUniswapV2Factory",
          "name": "",
          "type": "address"
        }
      ],
      "stateMutability": "view",
      "type": "function"
    },
    {
      "stateMutability": "payable",
      "type": "receive"
    },
    {
      "inputs": [],
      "name": "ex1_showIHaveTokens",
      "outputs": [],
      "stateMutability": "nonpayable",
      "type": "function"
    },
    {
      "inputs": [],
      "name": "ex2_showIProvidedLiquidity",
      "outputs": [],
      "stateMutability": "nonpayable",
      "type": "function"
    },
    {
      "inputs": [],
      "name": "ex6a_getTickerAndSupply",
      "outputs": [],
      "stateMutability": "nonpayable",
      "type": "function"
    },
    {
      "inputs": [],
      "name": "ex6b_testErc20TickerAndSupply",
      "outputs": [],
      "stateMutability": "nonpayable",
      "type": "function"
    },
    {
      "inputs": [],
      "name": "ex7_tokenIsTradableOnUniswap",
      "outputs": [],
      "stateMutability": "nonpayable",
      "type": "function"
    },
    {
      "inputs": [],
      "name": "ex8_contractCanSwapVsEth",
      "outputs": [],
      "stateMutability": "nonpayable",
      "type": "function"
    },
    {
      "inputs": [],
      "name": "ex9_contractCanSwapVsDummyToken",
      "outputs": [],
      "stateMutability": "nonpayable",
      "type": "function"
    },
    {
      "inputs": [],
      "name": "ex10_contractCanProvideLiquidity",
      "outputs": [],
      "stateMutability": "nonpayable",
      "type": "function"
    },
    {
      "inputs": [],
      "name": "ex11_contractCanWithdrawLiquidity",
      "outputs": [],
      "stateMutability": "nonpayable",
      "type": "function"
    },
    {
      "inputs": [
        {
          "internalType": "contract IExerciceSolution",
          "name": "studentExercice_",
          "type": "address"
        }
      ],
      "name": "submitExercice",
      "outputs": [],
      "stateMutability": "nonpayable",
      "type": "function"
    },
    {
      "inputs": [
        {
          "internalType": "contract IRichERC20",
          "name": "studentErc20_",
          "type": "address"
        }
      ],
      "name": "submitErc20",
      "outputs": [],
      "stateMutability": "nonpayable",
      "type": "function"
    },
    {
      "inputs": [
        {
          "internalType": "bytes32",
          "name": "_bytes32",
          "type": "bytes32"
        }
      ],
      "name": "bytes32ToString",
      "outputs": [
        {
          "internalType": "string",
          "name": "",
          "type": "string"
        }
      ],
      "stateMutability": "pure",
      "type": "function"
    },
    {
      "inputs": [
        {
          "internalType": "address",
          "name": "studentAddres",
          "type": "address"
        }
      ],
      "name": "readTicker",
      "outputs": [
        {
          "internalType": "string",
          "name": "",
          "type": "string"
        }
      ],
      "stateMutability": "view",
      "type": "function"
    },
    {
      "inputs": [
        {
          "internalType": "address",
          "name": "studentAddres",
          "type": "address"
        }
      ],
      "name": "readSupply",
      "outputs": [
        {
          "internalType": "uint256",
          "name": "",
          "type": "uint256"
        }
      ],
      "stateMutability": "view",
      "type": "function"
    },
    {
      "inputs": [
        {
          "internalType": "uint256[20]",
          "name": "_randomSupplies",
          "type": "uint256[20]"
        },
        {
          "internalType": "string[20]",
          "name": "_randomTickers",
          "type": "string[20]"
        }
      ],
      "name": "setRandomTickersAndSupply",
      "outputs": [],
      "stateMutability": "nonpayable",
      "type": "function"
    }
  ],
  "bytecode": "0x60806040523480156200001157600080fd5b5060405162005db138038062005db1833981810160405262000037919081019062000202565b83600160006101000a81548173ffffffffffffffffffffffffffffffffffffffff021916908373ffffffffffffffffffffffffffffffffffffffff16021790555082600260006101000a81548173ffffffffffffffffffffffffffffffffffffffff021916908373ffffffffffffffffffffffffffffffffffffffff16021790555081600360006101000a81548173ffffffffffffffffffffffffffffffffffffffff021916908373ffffffffffffffffffffffffffffffffffffffff16021790555080600460006101000a81548173ffffffffffffffffffffffffffffffffffffffff021916908373ffffffffffffffffffffffffffffffffffffffff1602179055507f82169bf8e2a940653a3005b8fbe3a01d8ab56fd5bbbcd0bf31ac67b29cee1f97600160009054906101000a900473ffffffffffffffffffffffffffffffffffffffff168484846040516200019494939291906200027f565b60405180910390a150505050620003a4565b600081519050620001b7816200033c565b92915050565b600081519050620001ce8162000356565b92915050565b600081519050620001e58162000370565b92915050565b600081519050620001fc816200038a565b92915050565b600080600080608085870312156200021957600080fd5b60006200022987828801620001bd565b94505060206200023c87828801620001d4565b93505060406200024f87828801620001eb565b92505060606200026287828801620001a6565b91505092959194509250565b6200027981620002cc565b82525050565b60006080820190506200029660008301876200026e565b620002a560208301866200026e565b620002b460408301856200026e565b620002c360608301846200026e565b95945050505050565b6000620002d9826200031c565b9050919050565b6000620002ed82620002cc565b9050919050565b60006200030182620002cc565b9050919050565b60006200031582620002cc565b9050919050565b600073ffffffffffffffffffffffffffffffffffffffff82169050919050565b6200034781620002cc565b81146200035357600080fd5b50565b6200036181620002e0565b81146200036d57600080fd5b50565b6200037b81620002f4565b81146200038757600080fd5b50565b620003958162000308565b8114620003a157600080fd5b50565b6159fd80620003b46000396000f3fe60806040526004361061019f5760003560e01c80639b148f17116100ec578063cec7f2101161008a578063e22ebfd611610064578063e22ebfd61461055d578063e84092a91461059a578063f0a47f78146105b1578063f4fdbb88146105ee576101a6565b8063cec7f210146104cc578063d1a2e76e146104f7578063e22b5dcf14610520576101a6565b8063c7599393116100c6578063c759939314610470578063ca5cd0c214610487578063cc093e7a1461049e578063cd3560d7146104b5576101a6565b80639b148f17146103f15780639f91f51614610408578063ad5c464814610445576101a6565b806352954cf31161015957806367479ec51161013357806367479ec5146103235780637c83d61a1461034e5780637db60caf146103775780639201de55146103b4576101a6565b806352954cf3146102ca57806359d0f713146102e15780635d54c3701461030c576101a6565b8062a3491a146101a857806305b12022146101e55780630c58c95c146101fc5780632236d353146102395780632e64c5001461026257806339119dce1461029f576101a6565b366101a657005b005b3480156101b457600080fd5b506101cf60048036036101ca91908101906149e0565b61062b565b6040516101dc91906153eb565b60405180910390f35b3480156101f157600080fd5b506101fa6106db565b005b34801561020857600080fd5b50610223600480360361021e91908101906149e0565b610af0565b604051610230919061539a565b60405180910390f35b34801561024557600080fd5b50610260600480360361025b9190810190614b16565b610b23565b005b34801561026e57600080fd5b5061028960048036036102849190810190614a32565b610c53565b6040516102969190615349565b60405180910390f35b3480156102ab57600080fd5b506102b4610c82565b6040516102c191906155bf565b60405180910390f35b3480156102d657600080fd5b506102df610c88565b005b3480156102ed57600080fd5b506102f6610ed5565b60405161030391906153d0565b60405180910390f35b34801561031857600080fd5b50610321610efb565b005b34801561032f57600080fd5b50610338611a76565b604051610345919061537f565b60405180910390f35b34801561035a57600080fd5b5061037560048036036103709190810190614b3f565b611a9c565b005b34801561038357600080fd5b5061039e600480360361039991908101906149e0565b611bcc565b6040516103ab91906155bf565b60405180910390f35b3480156103c057600080fd5b506103db60048036036103d69190810190614aed565b611be4565b6040516103e8919061540d565b60405180910390f35b3480156103fd57600080fd5b50610406611d41565b005b34801561041457600080fd5b5061042f600480360361042a91908101906149e0565b611f92565b60405161043c91906155bf565b60405180910390f35b34801561045157600080fd5b5061045a611fdb565b604051610467919061521d565b60405180910390f35b34801561047c57600080fd5b50610485612001565b005b34801561049357600080fd5b5061049c6123f6565b005b3480156104aa57600080fd5b506104b3612a33565b005b3480156104c157600080fd5b506104ca61334d565b005b3480156104d857600080fd5b506104e1613bf5565b6040516104ee9190615364565b60405180910390f35b34801561050357600080fd5b5061051e60048036036105199190810190614a6e565b613c1b565b005b34801561052c57600080fd5b50610547600480360361054291908101906149e0565b613d70565b604051610554919061540d565b60405180910390f35b34801561056957600080fd5b50610584600480360361057f91908101906149e0565b613e51565b60405161059191906153b5565b60405180910390f35b3480156105a657600080fd5b506105af613e84565b005b3480156105bd57600080fd5b506105d860048036036105d391908101906149e0565b6144c1565b6040516105e59190615349565b60405180910390f35b3480156105fa57600080fd5b50610615600480360361061091908101906149e0565b6144e1565b6040516106229190615349565b60405180910390f35b602e6020528060005260406000206000915090508054600181600116156101000203166002900480601f0160208091040260200160405190810160405280929190818152602001828054600181600116156101000203166002900480156106d35780601f106106a8576101008083540402835291602001916106d3565b820191906000526020600020905b8154815290600101906020018083116106b657829003601f168201915b505050505081565b600080600460009054906101000a900473ffffffffffffffffffffffffffffffffffffffff1673ffffffffffffffffffffffffffffffffffffffff16603160003373ffffffffffffffffffffffffffffffffffffffff1673ffffffffffffffffffffffffffffffffffffffff16815260200190815260200160002060009054906101000a900473ffffffffffffffffffffffffffffffffffffffff1673ffffffffffffffffffffffffffffffffffffffff161061081a57600460009054906101000a900473ffffffffffffffffffffffffffffffffffffffff16603160003373ffffffffffffffffffffffffffffffffffffffff1673ffffffffffffffffffffffffffffffffffffffff16815260200190815260200160002060009054906101000a900473ffffffffffffffffffffffffffffffffffffffff1661089e565b603160003373ffffffffffffffffffffffffffffffffffffffff1673ffffffffffffffffffffffffffffffffffffffff16815260200190815260200160002060009054906101000a900473ffffffffffffffffffffffffffffffffffffffff16600460009054906101000a900473ffffffffffffffffffffffffffffffffffffffff165b915091506000600360009054906101000a900473ffffffffffffffffffffffffffffffffffffffff1673ffffffffffffffffffffffffffffffffffffffff1663e6a4390584846040518363ffffffff1660e01b8152600401610901929190615320565b60206040518083038186803b15801561091957600080fd5b505afa15801561092d573d6000803e3d6000fd5b505050506040513d601f19601f820116820180604052506109519190810190614a09565b9050600073ffffffffffffffffffffffffffffffffffffffff168173ffffffffffffffffffffffffffffffffffffffff16141561098d57600080fd5b603060003373ffffffffffffffffffffffffffffffffffffffff1673ffffffffffffffffffffffffffffffffffffffff16815260200190815260200160002060006007815260200190815260200160002060009054906101000a900460ff16610aeb576001603060003373ffffffffffffffffffffffffffffffffffffffff1673ffffffffffffffffffffffffffffffffffffffff16815260200190815260200160002060006007815260200190815260200160002060006101000a81548160ff021916908315150217905550600160009054906101000a900473ffffffffffffffffffffffffffffffffffffffff1673ffffffffffffffffffffffffffffffffffffffff1663158a49883360056040518363ffffffff1660e01b8152600401610ab89291906152f7565b600060405180830381600087803b158015610ad257600080fd5b505af1158015610ae6573d6000803e3d6000fd5b505050505b505050565b60326020528060005260406000206000915054906101000a900473ffffffffffffffffffffffffffffffffffffffff1681565b603360008273ffffffffffffffffffffffffffffffffffffffff1673ffffffffffffffffffffffffffffffffffffffff16815260200190815260200160002060009054906101000a900460ff1615610b7a57600080fd5b80603260003373ffffffffffffffffffffffffffffffffffffffff1673ffffffffffffffffffffffffffffffffffffffff16815260200190815260200160002060006101000a81548173ffffffffffffffffffffffffffffffffffffffff021916908373ffffffffffffffffffffffffffffffffffffffff1602179055506001603360008373ffffffffffffffffffffffffffffffffffffffff1673ffffffffffffffffffffffffffffffffffffffff16815260200190815260200160002060006101000a81548160ff02191690831515021790555050565b60306020528160005260406000206020528060005260406000206000915091509054906101000a900460ff1681565b602d5481565b6000600260009054906101000a900473ffffffffffffffffffffffffffffffffffffffff1673ffffffffffffffffffffffffffffffffffffffff166370a08231336040518263ffffffff1660e01b8152600401610ce59190615238565b60206040518083038186803b158015610cfd57600080fd5b505afa158015610d11573d6000803e3d6000fd5b505050506040513d601f19601f82011682018060405250610d359190810190614bf8565b11610d75576040517f08c379a0000000000000000000000000000000000000000000000000000000008152600401610d6c906154bf565b60405180910390fd5b603060003373ffffffffffffffffffffffffffffffffffffffff1673ffffffffffffffffffffffffffffffffffffffff16815260200190815260200160002060006001815260200190815260200160002060009054906101000a900460ff16610ed3576001603060003373ffffffffffffffffffffffffffffffffffffffff1673ffffffffffffffffffffffffffffffffffffffff16815260200190815260200160002060006001815260200190815260200160002060006101000a81548160ff021916908315150217905550600160009054906101000a900473ffffffffffffffffffffffffffffffffffffffff1673ffffffffffffffffffffffffffffffffffffffff1663158a49883360026040518363ffffffff1660e01b8152600401610ea09291906152ce565b600060405180830381600087803b158015610eba57600080fd5b505af1158015610ece573d6000803e3d6000fd5b505050505b565b600360009054906101000a900473ffffffffffffffffffffffffffffffffffffffff1681565b600080600260009054906101000a900473ffffffffffffffffffffffffffffffffffffffff1673ffffffffffffffffffffffffffffffffffffffff16603160003373ffffffffffffffffffffffffffffffffffffffff1673ffffffffffffffffffffffffffffffffffffffff16815260200190815260200160002060009054906101000a900473ffffffffffffffffffffffffffffffffffffffff1673ffffffffffffffffffffffffffffffffffffffff161061103a57600260009054906101000a900473ffffffffffffffffffffffffffffffffffffffff16603160003373ffffffffffffffffffffffffffffffffffffffff1673ffffffffffffffffffffffffffffffffffffffff16815260200190815260200160002060009054906101000a900473ffffffffffffffffffffffffffffffffffffffff166110be565b603160003373ffffffffffffffffffffffffffffffffffffffff1673ffffffffffffffffffffffffffffffffffffffff16815260200190815260200160002060009054906101000a900473ffffffffffffffffffffffffffffffffffffffff16600260009054906101000a900473ffffffffffffffffffffffffffffffffffffffff165b915091506000600360009054906101000a900473ffffffffffffffffffffffffffffffffffffffff1673ffffffffffffffffffffffffffffffffffffffff1663e6a4390584846040518363ffffffff1660e01b8152600401611121929190615320565b60206040518083038186803b15801561113957600080fd5b505afa15801561114d573d6000803e3d6000fd5b505050506040513d601f19601f820116820180604052506111719190810190614a09565b905060008190506000808273ffffffffffffffffffffffffffffffffffffffff16630902f1ac6040518163ffffffff1660e01b815260040160606040518083038186803b1580156111c157600080fd5b505afa1580156111d5573d6000803e3d6000fd5b505050506040513d601f19601f820116820180604052506111f99190810190614ba9565b50915091506000603160003373ffffffffffffffffffffffffffffffffffffffff1673ffffffffffffffffffffffffffffffffffffffff16815260200190815260200160002060009054906101000a900473ffffffffffffffffffffffffffffffffffffffff1673ffffffffffffffffffffffffffffffffffffffff166370a08231603260003373ffffffffffffffffffffffffffffffffffffffff1673ffffffffffffffffffffffffffffffffffffffff16815260200190815260200160002060009054906101000a900473ffffffffffffffffffffffffffffffffffffffff166040518263ffffffff1660e01b81526004016112f7919061521d565b60206040518083038186803b15801561130f57600080fd5b505afa158015611323573d6000803e3d6000fd5b505050506040513d601f19601f820116820180604052506113479190810190614bf8565b90506000600260009054906101000a900473ffffffffffffffffffffffffffffffffffffffff1673ffffffffffffffffffffffffffffffffffffffff166370a08231603260003373ffffffffffffffffffffffffffffffffffffffff1673ffffffffffffffffffffffffffffffffffffffff16815260200190815260200160002060009054906101000a900473ffffffffffffffffffffffffffffffffffffffff166040518263ffffffff1660e01b8152600401611405919061521d565b60206040518083038186803b15801561141d57600080fd5b505afa158015611431573d6000803e3d6000fd5b505050506040513d601f19601f820116820180604052506114559190810190614bf8565b9050603260003373ffffffffffffffffffffffffffffffffffffffff1673ffffffffffffffffffffffffffffffffffffffff16815260200190815260200160002060009054906101000a900473ffffffffffffffffffffffffffffffffffffffff1673ffffffffffffffffffffffffffffffffffffffff16637c587b226040518163ffffffff1660e01b8152600401600060405180830381600087803b1580156114fe57600080fd5b505af1158015611512573d6000803e3d6000fd5b505050506000808673ffffffffffffffffffffffffffffffffffffffff16630902f1ac6040518163ffffffff1660e01b815260040160606040518083038186803b15801561155f57600080fd5b505afa158015611573573d6000803e3d6000fd5b505050506040513d601f19601f820116820180604052506115979190810190614ba9565b5091509150816dffffffffffffffffffffffffffff16866dffffffffffffffffffffffffffff16141580156115ec5750806dffffffffffffffffffffffffffff16856dffffffffffffffffffffffffffff1614155b61162b576040517f08c379a00000000000000000000000000000000000000000000000000000000081526004016116229061553f565b60405180910390fd5b6000603160003373ffffffffffffffffffffffffffffffffffffffff1673ffffffffffffffffffffffffffffffffffffffff16815260200190815260200160002060009054906101000a900473ffffffffffffffffffffffffffffffffffffffff1673ffffffffffffffffffffffffffffffffffffffff166370a08231603260003373ffffffffffffffffffffffffffffffffffffffff1673ffffffffffffffffffffffffffffffffffffffff16815260200190815260200160002060009054906101000a900473ffffffffffffffffffffffffffffffffffffffff166040518263ffffffff1660e01b8152600401611724919061521d565b60206040518083038186803b15801561173c57600080fd5b505afa158015611750573d6000803e3d6000fd5b505050506040513d601f19601f820116820180604052506117749190810190614bf8565b9050808514156117b9576040517f08c379a00000000000000000000000000000000000000000000000000000000081526004016117b09061559f565b60405180910390fd5b6000600260009054906101000a900473ffffffffffffffffffffffffffffffffffffffff1673ffffffffffffffffffffffffffffffffffffffff166370a08231603260003373ffffffffffffffffffffffffffffffffffffffff1673ffffffffffffffffffffffffffffffffffffffff16815260200190815260200160002060009054906101000a900473ffffffffffffffffffffffffffffffffffffffff166040518263ffffffff1660e01b8152600401611875919061521d565b60206040518083038186803b15801561188d57600080fd5b505afa1580156118a1573d6000803e3d6000fd5b505050506040513d601f19601f820116820180604052506118c59190810190614bf8565b90508085141561190a576040517f08c379a00000000000000000000000000000000000000000000000000000000081526004016119019061551f565b60405180910390fd5b603060003373ffffffffffffffffffffffffffffffffffffffff1673ffffffffffffffffffffffffffffffffffffffff16815260200190815260200160002060006009815260200190815260200160002060009054906101000a900460ff16611a68576001603060003373ffffffffffffffffffffffffffffffffffffffff1673ffffffffffffffffffffffffffffffffffffffff16815260200190815260200160002060006009815260200190815260200160002060006101000a81548160ff021916908315150217905550600160009054906101000a900473ffffffffffffffffffffffffffffffffffffffff1673ffffffffffffffffffffffffffffffffffffffff1663158a49883360026040518363ffffffff1660e01b8152600401611a359291906152ce565b600060405180830381600087803b158015611a4f57600080fd5b505af1158015611a63573d6000803e3d6000fd5b505050505b505050505050505050505050565b600260009054906101000a900473ffffffffffffffffffffffffffffffffffffffff1681565b603360008273ffffffffffffffffffffffffffffffffffffffff1673ffffffffffffffffffffffffffffffffffffffff16815260200190815260200160002060009054906101000a900460ff1615611af357600080fd5b80603160003373ffffffffffffffffffffffffffffffffffffffff1673ffffffffffffffffffffffffffffffffffffffff16815260200190815260200160002060006101000a81548173ffffffffffffffffffffffffffffffffffffffff021916908373ffffffffffffffffffffffffffffffffffffffff1602179055506001603360008373ffffffffffffffffffffffffffffffffffffffff1673ffffffffffffffffffffffffffffffffffffffff16815260200190815260200160002060006101000a81548160ff02191690831515021790555050565b602f6020528060005260406000206000915090505481565b606060008090505b60208160ff16108015611c375750600060f81b838260ff1660208110611c0e57fe5b1a60f81b7effffffffffffffffffffffffffffffffffffffffffffffffffffffffffffff191614155b15611c49578080600101915050611bec565b60608160ff166040519080825280601f01601f191660200182016040528015611c815781602001600182028038833980820191505090505b509050600091505b60208260ff16108015611cd45750600060f81b848360ff1660208110611cab57fe5b1a60f81b7effffffffffffffffffffffffffffffffffffffffffffffffffffffffffffff191614155b15611d3757838260ff1660208110611ce857fe5b1a60f81b818360ff1681518110611cfb57fe5b60200101907effffffffffffffffffffffffffffffffffffffffffffffffffffffffffffff1916908160001a9053508180600101925050611c89565b8092505050919050565b670de0b6b3a76400006005602d5460148110611d5957fe5b015402602f60003373ffffffffffffffffffffffffffffffffffffffff1673ffffffffffffffffffffffffffffffffffffffff168152602001908152602001600020819055506019602d5460148110611dae57fe5b01602e60003373ffffffffffffffffffffffffffffffffffffffff1673ffffffffffffffffffffffffffffffffffffffff1681526020019081526020016000209080546001816001161561010002031660029004611e0d92919061455a565b506001602d600082825401925050819055506014602d5410611e32576000602d819055505b603060003373ffffffffffffffffffffffffffffffffffffffff1673ffffffffffffffffffffffffffffffffffffffff16815260200190815260200160002060006005815260200190815260200160002060009054906101000a900460ff16611f90576001603060003373ffffffffffffffffffffffffffffffffffffffff1673ffffffffffffffffffffffffffffffffffffffff16815260200190815260200160002060006005815260200190815260200160002060006101000a81548160ff021916908315150217905550600160009054906101000a900473ffffffffffffffffffffffffffffffffffffffff1673ffffffffffffffffffffffffffffffffffffffff1663158a49883360026040518363ffffffff1660e01b8152600401611f5d9291906152ce565b600060405180830381600087803b158015611f7757600080fd5b505af1158015611f8b573d6000803e3d6000fd5b505050505b565b6000602f60008373ffffffffffffffffffffffffffffffffffffffff1673ffffffffffffffffffffffffffffffffffffffff168152602001908152602001600020549050919050565b600460009054906101000a900473ffffffffffffffffffffffffffffffffffffffff1681565b600080600460009054906101000a900473ffffffffffffffffffffffffffffffffffffffff1673ffffffffffffffffffffffffffffffffffffffff16600260009054906101000a900473ffffffffffffffffffffffffffffffffffffffff1673ffffffffffffffffffffffffffffffffffffffff16106120c657600460009054906101000a900473ffffffffffffffffffffffffffffffffffffffff16600260009054906101000a900473ffffffffffffffffffffffffffffffffffffffff1661210d565b600260009054906101000a900473ffffffffffffffffffffffffffffffffffffffff16600460009054906101000a900473ffffffffffffffffffffffffffffffffffffffff165b915091506000600360009054906101000a900473ffffffffffffffffffffffffffffffffffffffff1673ffffffffffffffffffffffffffffffffffffffff1663e6a4390584846040518363ffffffff1660e01b8152600401612170929190615320565b60206040518083038186803b15801561218857600080fd5b505afa15801561219c573d6000803e3d6000fd5b505050506040513d601f19601f820116820180604052506121c09190810190614a09565b9050600081905060008173ffffffffffffffffffffffffffffffffffffffff166370a08231336040518263ffffffff1660e01b81526004016122029190615238565b60206040518083038186803b15801561221a57600080fd5b505afa15801561222e573d6000803e3d6000fd5b505050506040513d601f19601f820116820180604052506122529190810190614bf8565b11612292576040517f08c379a0000000000000000000000000000000000000000000000000000000008152600401612289906154df565b60405180910390fd5b603060003373ffffffffffffffffffffffffffffffffffffffff1673ffffffffffffffffffffffffffffffffffffffff16815260200190815260200160002060006002815260200190815260200160002060009054906101000a900460ff166123f0576001603060003373ffffffffffffffffffffffffffffffffffffffff1673ffffffffffffffffffffffffffffffffffffffff16815260200190815260200160002060006002815260200190815260200160002060006101000a81548160ff021916908315150217905550600160009054906101000a900473ffffffffffffffffffffffffffffffffffffffff1673ffffffffffffffffffffffffffffffffffffffff1663158a49883360026040518363ffffffff1660e01b81526004016123bd9291906152ce565b600060405180830381600087803b1580156123d757600080fd5b505af11580156123eb573d6000803e3d6000fd5b505050505b50505050565b600080600460009054906101000a900473ffffffffffffffffffffffffffffffffffffffff1673ffffffffffffffffffffffffffffffffffffffff16603160003373ffffffffffffffffffffffffffffffffffffffff1673ffffffffffffffffffffffffffffffffffffffff16815260200190815260200160002060009054906101000a900473ffffffffffffffffffffffffffffffffffffffff1673ffffffffffffffffffffffffffffffffffffffff161061253557600460009054906101000a900473ffffffffffffffffffffffffffffffffffffffff16603160003373ffffffffffffffffffffffffffffffffffffffff1673ffffffffffffffffffffffffffffffffffffffff16815260200190815260200160002060009054906101000a900473ffffffffffffffffffffffffffffffffffffffff166125b9565b603160003373ffffffffffffffffffffffffffffffffffffffff1673ffffffffffffffffffffffffffffffffffffffff16815260200190815260200160002060009054906101000a900473ffffffffffffffffffffffffffffffffffffffff16600460009054906101000a900473ffffffffffffffffffffffffffffffffffffffff165b915091506000600360009054906101000a900473ffffffffffffffffffffffffffffffffffffffff1673ffffffffffffffffffffffffffffffffffffffff1663e6a4390584846040518363ffffffff1660e01b815260040161261c929190615320565b60206040518083038186803b15801561263457600080fd5b505afa158015612648573d6000803e3d6000fd5b505050506040513d601f19601f8201168201806040525061266c9190810190614a09565b905060008190506000808273ffffffffffffffffffffffffffffffffffffffff16630902f1ac6040518163ffffffff1660e01b815260040160606040518083038186803b1580156126bc57600080fd5b505afa1580156126d0573d6000803e3d6000fd5b505050506040513d601f19601f820116820180604052506126f49190810190614ba9565b5091509150603260003373ffffffffffffffffffffffffffffffffffffffff1673ffffffffffffffffffffffffffffffffffffffff16815260200190815260200160002060009054906101000a900473ffffffffffffffffffffffffffffffffffffffff1673ffffffffffffffffffffffffffffffffffffffff16637ea382c16040518163ffffffff1660e01b8152600401600060405180830381600087803b1580156127a057600080fd5b505af11580156127b4573d6000803e3d6000fd5b505050506000808473ffffffffffffffffffffffffffffffffffffffff16630902f1ac6040518163ffffffff1660e01b815260040160606040518083038186803b15801561280157600080fd5b505afa158015612815573d6000803e3d6000fd5b505050506040513d601f19601f820116820180604052506128399190810190614ba9565b5091509150816dffffffffffffffffffffffffffff16846dffffffffffffffffffffffffffff1611801561288c5750806dffffffffffffffffffffffffffff16836dffffffffffffffffffffffffffff16115b6128cb576040517f08c379a00000000000000000000000000000000000000000000000000000000081526004016128c29061553f565b60405180910390fd5b603060003373ffffffffffffffffffffffffffffffffffffffff1673ffffffffffffffffffffffffffffffffffffffff1681526020019081526020016000206000600b815260200190815260200160002060009054906101000a900460ff16612a29576001603060003373ffffffffffffffffffffffffffffffffffffffff1673ffffffffffffffffffffffffffffffffffffffff1681526020019081526020016000206000600b815260200190815260200160002060006101000a81548160ff021916908315150217905550600160009054906101000a900473ffffffffffffffffffffffffffffffffffffffff1673ffffffffffffffffffffffffffffffffffffffff1663158a49883360026040518363ffffffff1660e01b81526004016129f69291906152ce565b600060405180830381600087803b158015612a1057600080fd5b505af1158015612a24573d6000803e3d6000fd5b505050505b5050505050505050565b600080600460009054906101000a900473ffffffffffffffffffffffffffffffffffffffff1673ffffffffffffffffffffffffffffffffffffffff16603160003373ffffffffffffffffffffffffffffffffffffffff1673ffffffffffffffffffffffffffffffffffffffff16815260200190815260200160002060009054906101000a900473ffffffffffffffffffffffffffffffffffffffff1673ffffffffffffffffffffffffffffffffffffffff1610612b7257600460009054906101000a900473ffffffffffffffffffffffffffffffffffffffff16603160003373ffffffffffffffffffffffffffffffffffffffff1673ffffffffffffffffffffffffffffffffffffffff16815260200190815260200160002060009054906101000a900473ffffffffffffffffffffffffffffffffffffffff16612bf6565b603160003373ffffffffffffffffffffffffffffffffffffffff1673ffffffffffffffffffffffffffffffffffffffff16815260200190815260200160002060009054906101000a900473ffffffffffffffffffffffffffffffffffffffff16600460009054906101000a900473ffffffffffffffffffffffffffffffffffffffff165b915091506000600360009054906101000a900473ffffffffffffffffffffffffffffffffffffffff1673ffffffffffffffffffffffffffffffffffffffff1663e6a4390584846040518363ffffffff1660e01b8152600401612c59929190615320565b60206040518083038186803b158015612c7157600080fd5b505afa158015612c85573d6000803e3d6000fd5b505050506040513d601f19601f82011682018060405250612ca99190810190614a09565b905060008190506000808273ffffffffffffffffffffffffffffffffffffffff16630902f1ac6040518163ffffffff1660e01b815260040160606040518083038186803b158015612cf957600080fd5b505afa158015612d0d573d6000803e3d6000fd5b505050506040513d601f19601f82011682018060405250612d319190810190614ba9565b50915091506000603160003373ffffffffffffffffffffffffffffffffffffffff1673ffffffffffffffffffffffffffffffffffffffff16815260200190815260200160002060009054906101000a900473ffffffffffffffffffffffffffffffffffffffff1673ffffffffffffffffffffffffffffffffffffffff166370a08231603260003373ffffffffffffffffffffffffffffffffffffffff1673ffffffffffffffffffffffffffffffffffffffff16815260200190815260200160002060009054906101000a900473ffffffffffffffffffffffffffffffffffffffff166040518263ffffffff1660e01b8152600401612e2f919061521d565b60206040518083038186803b158015612e4757600080fd5b505afa158015612e5b573d6000803e3d6000fd5b505050506040513d601f19601f82011682018060405250612e7f9190810190614bf8565b9050603260003373ffffffffffffffffffffffffffffffffffffffff1673ffffffffffffffffffffffffffffffffffffffff16815260200190815260200160002060009054906101000a900473ffffffffffffffffffffffffffffffffffffffff1673ffffffffffffffffffffffffffffffffffffffff1663c4a859936040518163ffffffff1660e01b8152600401600060405180830381600087803b158015612f2857600080fd5b505af1158015612f3c573d6000803e3d6000fd5b505050506000808573ffffffffffffffffffffffffffffffffffffffff16630902f1ac6040518163ffffffff1660e01b815260040160606040518083038186803b158015612f8957600080fd5b505afa158015612f9d573d6000803e3d6000fd5b505050506040513d601f19601f82011682018060405250612fc19190810190614ba9565b5091509150816dffffffffffffffffffffffffffff16856dffffffffffffffffffffffffffff16141580156130165750806dffffffffffffffffffffffffffff16846dffffffffffffffffffffffffffff1614155b613055576040517f08c379a000000000000000000000000000000000000000000000000000000000815260040161304c9061553f565b60405180910390fd5b6000603160003373ffffffffffffffffffffffffffffffffffffffff1673ffffffffffffffffffffffffffffffffffffffff16815260200190815260200160002060009054906101000a900473ffffffffffffffffffffffffffffffffffffffff1673ffffffffffffffffffffffffffffffffffffffff166370a08231603260003373ffffffffffffffffffffffffffffffffffffffff1673ffffffffffffffffffffffffffffffffffffffff16815260200190815260200160002060009054906101000a900473ffffffffffffffffffffffffffffffffffffffff166040518263ffffffff1660e01b815260040161314e919061521d565b60206040518083038186803b15801561316657600080fd5b505afa15801561317a573d6000803e3d6000fd5b505050506040513d601f19601f8201168201806040525061319e9190810190614bf8565b9050808414156131e3576040517f08c379a00000000000000000000000000000000000000000000000000000000081526004016131da9061545f565b60405180910390fd5b603060003373ffffffffffffffffffffffffffffffffffffffff1673ffffffffffffffffffffffffffffffffffffffff16815260200190815260200160002060006008815260200190815260200160002060009054906101000a900460ff16613341576001603060003373ffffffffffffffffffffffffffffffffffffffff1673ffffffffffffffffffffffffffffffffffffffff16815260200190815260200160002060006008815260200190815260200160002060006101000a81548160ff021916908315150217905550600160009054906101000a900473ffffffffffffffffffffffffffffffffffffffff1673ffffffffffffffffffffffffffffffffffffffff1663158a49883360016040518363ffffffff1660e01b815260040161330e9291906152a5565b600060405180830381600087803b15801561332857600080fd5b505af115801561333c573d6000803e3d6000fd5b505050505b50505050505050505050565b603060003373ffffffffffffffffffffffffffffffffffffffff1673ffffffffffffffffffffffffffffffffffffffff16815260200190815260200160002060006005815260200190815260200160002060009054906101000a900460ff166133b557600080fd5b613577602e60003373ffffffffffffffffffffffffffffffffffffffff1673ffffffffffffffffffffffffffffffffffffffff1681526020019081526020016000208054600181600116156101000203166002900480601f01602080910402602001604051908101604052809291908181526020018280546001816001161561010002031660029004801561348b5780601f106134605761010080835404028352916020019161348b565b820191906000526020600020905b81548152906001019060200180831161346e57829003601f168201915b5050505050603160003373ffffffffffffffffffffffffffffffffffffffff1673ffffffffffffffffffffffffffffffffffffffff16815260200190815260200160002060009054906101000a900473ffffffffffffffffffffffffffffffffffffffff1673ffffffffffffffffffffffffffffffffffffffff166395d89b416040518163ffffffff1660e01b815260040160006040518083038186803b15801561353557600080fd5b505afa158015613549573d6000803e3d6000fd5b505050506040513d6000823e3d601f19601f820116820180604052506135729190810190614b68565b614501565b6135b6576040517f08c379a00000000000000000000000000000000000000000000000000000000081526004016135ad9061549f565b60405180910390fd5b603160003373ffffffffffffffffffffffffffffffffffffffff1673ffffffffffffffffffffffffffffffffffffffff16815260200190815260200160002060009054906101000a900473ffffffffffffffffffffffffffffffffffffffff1673ffffffffffffffffffffffffffffffffffffffff166318160ddd6040518163ffffffff1660e01b815260040160206040518083038186803b15801561365b57600080fd5b505afa15801561366f573d6000803e3d6000fd5b505050506040513d601f19601f820116820180604052506136939190810190614bf8565b602f60003373ffffffffffffffffffffffffffffffffffffffff1673ffffffffffffffffffffffffffffffffffffffff1681526020019081526020016000205414613713576040517f08c379a000000000000000000000000000000000000000000000000000000000815260040161370a9061555f565b60405180910390fd5b6000603160003373ffffffffffffffffffffffffffffffffffffffff1673ffffffffffffffffffffffffffffffffffffffff16815260200190815260200160002060009054906101000a900473ffffffffffffffffffffffffffffffffffffffff1673ffffffffffffffffffffffffffffffffffffffff1663dd62ed3e30336040518363ffffffff1660e01b81526004016137af929190615253565b60206040518083038186803b1580156137c757600080fd5b505afa1580156137db573d6000803e3d6000fd5b505050506040513d601f19601f820116820180604052506137ff9190810190614bf8565b1461383f576040517f08c379a00000000000000000000000000000000000000000000000000000000081526004016138369061557f565b60405180910390fd5b6000603160003373ffffffffffffffffffffffffffffffffffffffff1673ffffffffffffffffffffffffffffffffffffffff16815260200190815260200160002060009054906101000a900473ffffffffffffffffffffffffffffffffffffffff1673ffffffffffffffffffffffffffffffffffffffff166370a08231306040518263ffffffff1660e01b81526004016138d99190615238565b60206040518083038186803b1580156138f157600080fd5b505afa158015613905573d6000803e3d6000fd5b505050506040513d601f19601f820116820180604052506139299190810190614bf8565b14613969576040517f08c379a0000000000000000000000000000000000000000000000000000000008152600401613960906154ff565b60405180910390fd5b603160003373ffffffffffffffffffffffffffffffffffffffff1673ffffffffffffffffffffffffffffffffffffffff16815260200190815260200160002060009054906101000a900473ffffffffffffffffffffffffffffffffffffffff1673ffffffffffffffffffffffffffffffffffffffff1663095ea7b333600a6040518363ffffffff1660e01b8152600401613a0492919061527c565b602060405180830381600087803b158015613a1e57600080fd5b505af1158015613a32573d6000803e3d6000fd5b505050506040513d601f19601f82011682018060405250613a569190810190614ac4565b613a95576040517f08c379a0000000000000000000000000000000000000000000000000000000008152600401613a8c9061547f565b60405180910390fd5b603060003373ffffffffffffffffffffffffffffffffffffffff1673ffffffffffffffffffffffffffffffffffffffff16815260200190815260200160002060006006815260200190815260200160002060009054906101000a900460ff16613bf3576001603060003373ffffffffffffffffffffffffffffffffffffffff1673ffffffffffffffffffffffffffffffffffffffff16815260200190815260200160002060006006815260200190815260200160002060006101000a81548160ff021916908315150217905550600160009054906101000a900473ffffffffffffffffffffffffffffffffffffffff1673ffffffffffffffffffffffffffffffffffffffff1663158a49883360026040518363ffffffff1660e01b8152600401613bc09291906152ce565b600060405180830381600087803b158015613bda57600080fd5b505af1158015613bee573d6000803e3d6000fd5b505050505b565b600160009054906101000a900473ffffffffffffffffffffffffffffffffffffffff1681565b600160009054906101000a900473ffffffffffffffffffffffffffffffffffffffff1673ffffffffffffffffffffffffffffffffffffffff1663f0a47f78336040518263ffffffff1660e01b8152600401613c769190615238565b60206040518083038186803b158015613c8e57600080fd5b505afa158015613ca2573d6000803e3d6000fd5b505050506040513d601f19601f82011682018060405250613cc69190810190614ac4565b613ccf57600080fd5b816005906014613ce09291906145e1565b50806019906014613cf2929190614621565b506000602d8190555060008090505b6014811015613d6b577fcc783cf5d663570e7c7576cec91f24975b35b957c8dd67766710be25c48cf60260198260148110613d3857fe5b0160058360148110613d4657fe5b0154604051613d5692919061542f565b60405180910390a18080600101915050613d01565b505050565b6060602e60008373ffffffffffffffffffffffffffffffffffffffff1673ffffffffffffffffffffffffffffffffffffffff1681526020019081526020016000208054600181600116156101000203166002900480601f016020809104026020016040519081016040528092919081815260200182805460018160011615610100020316600290048015613e455780601f10613e1a57610100808354040283529160200191613e45565b820191906000526020600020905b815481529060010190602001808311613e2857829003601f168201915b50505050509050919050565b60316020528060005260406000206000915054906101000a900473ffffffffffffffffffffffffffffffffffffffff1681565b600080600460009054906101000a900473ffffffffffffffffffffffffffffffffffffffff1673ffffffffffffffffffffffffffffffffffffffff16603160003373ffffffffffffffffffffffffffffffffffffffff1673ffffffffffffffffffffffffffffffffffffffff16815260200190815260200160002060009054906101000a900473ffffffffffffffffffffffffffffffffffffffff1673ffffffffffffffffffffffffffffffffffffffff1610613fc357600460009054906101000a900473ffffffffffffffffffffffffffffffffffffffff16603160003373ffffffffffffffffffffffffffffffffffffffff1673ffffffffffffffffffffffffffffffffffffffff16815260200190815260200160002060009054906101000a900473ffffffffffffffffffffffffffffffffffffffff16614047565b603160003373ffffffffffffffffffffffffffffffffffffffff1673ffffffffffffffffffffffffffffffffffffffff16815260200190815260200160002060009054906101000a900473ffffffffffffffffffffffffffffffffffffffff16600460009054906101000a900473ffffffffffffffffffffffffffffffffffffffff165b915091506000600360009054906101000a900473ffffffffffffffffffffffffffffffffffffffff1673ffffffffffffffffffffffffffffffffffffffff1663e6a4390584846040518363ffffffff1660e01b81526004016140aa929190615320565b60206040518083038186803b1580156140c257600080fd5b505afa1580156140d6573d6000803e3d6000fd5b505050506040513d601f19601f820116820180604052506140fa9190810190614a09565b905060008190506000808273ffffffffffffffffffffffffffffffffffffffff16630902f1ac6040518163ffffffff1660e01b815260040160606040518083038186803b15801561414a57600080fd5b505afa15801561415e573d6000803e3d6000fd5b505050506040513d601f19601f820116820180604052506141829190810190614ba9565b5091509150603260003373ffffffffffffffffffffffffffffffffffffffff1673ffffffffffffffffffffffffffffffffffffffff16815260200190815260200160002060009054906101000a900473ffffffffffffffffffffffffffffffffffffffff1673ffffffffffffffffffffffffffffffffffffffff1663e8078d946040518163ffffffff1660e01b8152600401600060405180830381600087803b15801561422e57600080fd5b505af1158015614242573d6000803e3d6000fd5b505050506000808473ffffffffffffffffffffffffffffffffffffffff16630902f1ac6040518163ffffffff1660e01b815260040160606040518083038186803b15801561428f57600080fd5b505afa1580156142a3573d6000803e3d6000fd5b505050506040513d601f19601f820116820180604052506142c79190810190614ba9565b5091509150816dffffffffffffffffffffffffffff16846dffffffffffffffffffffffffffff1610801561431a5750806dffffffffffffffffffffffffffff16836dffffffffffffffffffffffffffff16105b614359576040517f08c379a00000000000000000000000000000000000000000000000000000000081526004016143509061553f565b60405180910390fd5b603060003373ffffffffffffffffffffffffffffffffffffffff1673ffffffffffffffffffffffffffffffffffffffff1681526020019081526020016000206000600a815260200190815260200160002060009054906101000a900460ff166144b7576001603060003373ffffffffffffffffffffffffffffffffffffffff1673ffffffffffffffffffffffffffffffffffffffff1681526020019081526020016000206000600a815260200190815260200160002060006101000a81548160ff021916908315150217905550600160009054906101000a900473ffffffffffffffffffffffffffffffffffffffff1673ffffffffffffffffffffffffffffffffffffffff1663158a49883360026040518363ffffffff1660e01b81526004016144849291906152ce565b600060405180830381600087803b15801561449e57600080fd5b505af11580156144b2573d6000803e3d6000fd5b505050505b5050505050505050565b60006020528060005260406000206000915054906101000a900460ff1681565b60336020528060005260406000206000915054906101000a900460ff1681565b6000816040516020016145149190615206565b604051602081830303815290604052805190602001208360405160200161453b9190615206565b6040516020818303038152906040528051906020012014905092915050565b828054600181600116156101000203166002900490600052602060002090601f016020900481019282601f1061459357805485556145d0565b828001600101855582156145d057600052602060002091601f016020900482015b828111156145cf5782548255916001019190600101906145b4565b5b5090506145dd9190614674565b5090565b8260148101928215614610579160200282015b8281111561460f5782518255916020019190600101906145f4565b5b50905061461d9190614674565b5090565b8260148101928215614663579160200282015b82811115614662578251829080519060200190614652929190614699565b5091602001919060010190614634565b5b5090506146709190614719565b5090565b61469691905b8082111561469257600081600090555060010161467a565b5090565b90565b828054600181600116156101000203166002900490600052602060002090601f016020900481019282601f106146da57805160ff1916838001178555614708565b82800160010185558215614708579182015b828111156147075782518255916020019190600101906146ec565b5b5090506147159190614674565b5090565b61474291905b8082111561473e57600081816147359190614745565b5060010161471f565b5090565b90565b50805460018160011615610100020316600290046000825580601f1061476b575061478a565b601f0160209004906000526020600020908101906147899190614674565b5b50565b60008135905061479c8161590f565b92915050565b6000815190506147b18161590f565b92915050565b600082601f8301126147c857600080fd5b60146147db6147d682615607565b6155da565b9150818360005b8381101561481257813586016147f888826148e4565b8452602084019350602083019250506001810190506147e2565b5050505092915050565b600082601f83011261482d57600080fd5b601461484061483b82615629565b6155da565b9150818385602084028201111561485657600080fd5b60005b83811015614886578161486c88826149a1565b845260208401935060208301925050600181019050614859565b5050505092915050565b60008151905061489f81615926565b92915050565b6000813590506148b48161593d565b92915050565b6000813590506148c981615954565b92915050565b6000813590506148de8161596b565b92915050565b600082601f8301126148f557600080fd5b81356149086149038261564b565b6155da565b9150808252602083016020830185838301111561492457600080fd5b61492f8382846158bc565b50505092915050565b600082601f83011261494957600080fd5b815161495c61495782615677565b6155da565b9150808252602083016020830185838301111561497857600080fd5b6149838382846158cb565b50505092915050565b60008151905061499b81615982565b92915050565b6000813590506149b081615999565b92915050565b6000815190506149c581615999565b92915050565b6000815190506149da816159b0565b92915050565b6000602082840312156149f257600080fd5b6000614a008482850161478d565b91505092915050565b600060208284031215614a1b57600080fd5b6000614a29848285016147a2565b91505092915050565b60008060408385031215614a4557600080fd5b6000614a538582860161478d565b9250506020614a64858286016149a1565b9150509250929050565b6000806102a08385031215614a8257600080fd5b6000614a908582860161481c565b92505061028083013567ffffffffffffffff811115614aae57600080fd5b614aba858286016147b7565b9150509250929050565b600060208284031215614ad657600080fd5b6000614ae484828501614890565b91505092915050565b600060208284031215614aff57600080fd5b6000614b0d848285016148a5565b91505092915050565b600060208284031215614b2857600080fd5b6000614b36848285016148ba565b91505092915050565b600060208284031215614b5157600080fd5b6000614b5f848285016148cf565b91505092915050565b600060208284031215614b7a57600080fd5b600082015167ffffffffffffffff811115614b9457600080fd5b614ba084828501614938565b91505092915050565b600080600060608486031215614bbe57600080fd5b6000614bcc8682870161498c565b9350506020614bdd8682870161498c565b9250506040614bee868287016149cb565b9150509250925092565b600060208284031215614c0a57600080fd5b6000614c18848285016149b6565b91505092915050565b614c2a8161578a565b82525050565b614c39816156ea565b82525050565b614c48816156fc565b82525050565b614c578161579c565b82525050565b614c66816157c0565b82525050565b614c75816157e4565b82525050565b614c8481615808565b82525050565b614c938161582c565b82525050565b614ca281615850565b82525050565b614cb181615862565b82525050565b614cc081615874565b82525050565b614ccf81615886565b82525050565b6000614ce0826156c3565b614cea81856156ce565b9350614cfa8185602086016158cb565b614d03816158fe565b840191505092915050565b6000614d19826156c3565b614d2381856156df565b9350614d338185602086016158cb565b80840191505092915050565b6000614d4a826156b8565b614d5481856156ce565b9350614d648185602086016158cb565b614d6d816158fe565b840191505092915050565b600081546001811660008114614d955760018114614dbb57614dff565b607f6002830416614da681876156ce565b955060ff198316865260208601935050614dff565b60028204614dc981876156ce565b9550614dd4856156a3565b60005b82811015614df657815481890152600182019150602081019050614dd7565b80880195505050505b505092915050565b6000614e146028836156ce565b91507f596f75207374696c6c2068617665207468652073616d6520616d6f756e74206f60008301527f6620746f6b656e730000000000000000000000000000000000000000000000006020830152604082019050919050565b6000614e7a6017836156ce565b91507f417070726f7665206e6f7420696d706c656d656e7465640000000000000000006000830152602082019050919050565b6000614eba6010836156ce565b91507f496e636f7272656374207469636b6572000000000000000000000000000000006000830152602082019050919050565b6000614efa6030836156ce565b91507f596f7520646f206e6f7420686f6c642064756d6d79546f6b656e732e2042757960008301527f207468656d206f6e20556e6973776170000000000000000000000000000000006020830152604082019050919050565b6000614f60602e836156ce565b91507f596f7520646f206e6f7420686f6c64206c697175696469747920696e2074686560008301527f20726571756972656420706f6f6c0000000000000000000000000000000000006020830152604082019050919050565b6000614fc6602c836156ce565b91507f42616c616e63654f66206e6f7420696d706c656d656e746564206f7220696e6360008301527f6f72726563746c792073657400000000000000000000000000000000000000006020830152604082019050919050565b600061502c602e836156ce565b91507f596f75207374696c6c2068617665207468652073616d6520616d6f756e74206f60008301527f662064756d6d7920746f6b656e730000000000000000000000000000000000006020830152604082019050919050565b60006150926028836156ce565b91507f4e6f206c6971756964697479206368616e676520696e20796f757220746f6b6560008301527f6e277320706f6f6c0000000000000000000000000000000000000000000000006020830152604082019050919050565b60006150f86010836156ce565b91507f496e636f727265637420737570706c79000000000000000000000000000000006000830152602082019050919050565b6000615138602c836156ce565b91507f416c6c6f77616e6365206e6f7420696d706c656d656e746564206f7220696e6360008301527f6f72726563746c792073657400000000000000000000000000000000000000006020830152604082019050919050565b600061519e602d836156ce565b91507f596f75207374696c6c2068617665207468652073616d6520616d6f756e74206f60008301527f6620796f757220746f6b656e73000000000000000000000000000000000000006020830152604082019050919050565b61520081615770565b82525050565b60006152128284614d0e565b915081905092915050565b60006020820190506152326000830184614c30565b92915050565b600060208201905061524d6000830184614c21565b92915050565b60006040820190506152686000830185614c21565b6152756020830184614c21565b9392505050565b60006040820190506152916000830185614c21565b61529e6020830184614c99565b9392505050565b60006040820190506152ba6000830185614c21565b6152c76020830184614ca8565b9392505050565b60006040820190506152e36000830185614c21565b6152f06020830184614cb7565b9392505050565b600060408201905061530c6000830185614c21565b6153196020830184614cc6565b9392505050565b60006040820190506153356000830185614c30565b6153426020830184614c30565b9392505050565b600060208201905061535e6000830184614c3f565b92915050565b60006020820190506153796000830184614c4e565b92915050565b60006020820190506153946000830184614c5d565b92915050565b60006020820190506153af6000830184614c6c565b92915050565b60006020820190506153ca6000830184614c7b565b92915050565b60006020820190506153e56000830184614c8a565b92915050565b600060208201905081810360008301526154058184614d3f565b905092915050565b600060208201905081810360008301526154278184614cd5565b905092915050565b600060408201905081810360008301526154498185614d78565b905061545860208301846151f7565b9392505050565b6000602082019050818103600083015261547881614e07565b9050919050565b6000602082019050818103600083015261549881614e6d565b9050919050565b600060208201905081810360008301526154b881614ead565b9050919050565b600060208201905081810360008301526154d881614eed565b9050919050565b600060208201905081810360008301526154f881614f53565b9050919050565b6000602082019050818103600083015261551881614fb9565b9050919050565b600060208201905081810360008301526155388161501f565b9050919050565b6000602082019050818103600083015261555881615085565b9050919050565b60006020820190508181036000830152615578816150eb565b9050919050565b600060208201905081810360008301526155988161512b565b9050919050565b600060208201905081810360008301526155b881615191565b9050919050565b60006020820190506155d460008301846151f7565b92915050565b6000604051905081810181811067ffffffffffffffff821117156155fd57600080fd5b8060405250919050565b600067ffffffffffffffff82111561561e57600080fd5b602082029050919050565b600067ffffffffffffffff82111561564057600080fd5b602082029050919050565b600067ffffffffffffffff82111561566257600080fd5b601f19601f8301169050602081019050919050565b600067ffffffffffffffff82111561568e57600080fd5b601f19601f8301169050602081019050919050565b60008190508160005260206000209050919050565b600081519050919050565b600081519050919050565b600082825260208201905092915050565b600081905092915050565b60006156f582615750565b9050919050565b60008115159050919050565b6000819050919050565b600061571d826156ea565b9050919050565b600061572f826156ea565b9050919050565b60006dffffffffffffffffffffffffffff82169050919050565b600073ffffffffffffffffffffffffffffffffffffffff82169050919050565b6000819050919050565b600063ffffffff82169050919050565b600061579582615898565b9050919050565b60006157a7826157ae565b9050919050565b60006157b982615750565b9050919050565b60006157cb826157d2565b9050919050565b60006157dd82615750565b9050919050565b60006157ef826157f6565b9050919050565b600061580182615750565b9050919050565b60006158138261581a565b9050919050565b600061582582615750565b9050919050565b60006158378261583e565b9050919050565b600061584982615750565b9050919050565b600061585b82615770565b9050919050565b600061586d82615770565b9050919050565b600061587f82615770565b9050919050565b600061589182615770565b9050919050565b60006158a3826158aa565b9050919050565b60006158b582615750565b9050919050565b82818337600083830152505050565b60005b838110156158e95780820151818401526020810190506158ce565b838111156158f8576000848401525b50505050565b6000601f19601f8301169050919050565b615918816156ea565b811461592357600080fd5b50565b61592f816156fc565b811461593a57600080fd5b50565b61594681615708565b811461595157600080fd5b50565b61595d81615712565b811461596857600080fd5b50565b61597481615724565b811461597f57600080fd5b50565b61598b81615736565b811461599657600080fd5b50565b6159a281615770565b81146159ad57600080fd5b50565b6159b98161577a565b81146159c457600080fd5b5056fea2646970667358221220242e7cf686f3ed48e88b25a5e9a9700053cc18d282fcd6a6ade439c03b8e4d1164736f6c63430006020033",
  "source": "pragma solidity ^0.6.0;\r\npragma experimental ABIEncoderV2;\r\n\r\nimport \"./ERC20TD.sol\";\r\nimport \"./IExerciceSolution.sol\";\r\nimport \"./IRichERC20.sol\";\r\nimport \"./utils/IUniswapV2Factory.sol\";\r\nimport \"./utils/IUniswapV2Pair.sol\";\r\n\r\ncontract Evaluator \r\n{\r\n\r\n\tmapping(address => bool) public teachers;\r\n\tERC20TD public TDAMM;\r\n\r\n\tERC20 public dummyToken;\r\n\tIUniswapV2Factory public uniswapV2Factory;\r\n\taddress public WETH;\r\n\r\n\tuint256[20] private randomSupplies;\r\n\tstring[20] private randomTickers;\r\n \tuint public nextValueStoreRank;\r\n\r\n \tmapping(address => string) public assignedTicker;\r\n \tmapping(address => uint256) public assignedSupply;\r\n \tmapping(address => mapping(uint256 => bool)) public exerciceProgression;\r\n \tmapping(address => IRichERC20) public studentErc20;\r\n \tmapping(address => IExerciceSolution) public studentExercice;\r\n \tmapping(address => bool) public hasBeenPaired;\r\n\r\n \tevent newRandomTickerAndSupply(string ticker, uint256 supply);\r\n \tevent constructedCorrectly(address erc20Address, address dummyTokenAddress, address uniFactoryAddress, address wethAddress);\r\n\tconstructor(ERC20TD _TDAMM, ERC20 _dummyToken, IUniswapV2Factory _uniswapV2Factory, address _WETH) \r\n\tpublic \r\n\t{\r\n\t\tTDAMM = _TDAMM;\r\n\t\tdummyToken = _dummyToken;\r\n\t\tuniswapV2Factory = _uniswapV2Factory;\r\n\t\tWETH = _WETH;\r\n\t\temit constructedCorrectly(address(TDAMM), address(_dummyToken), address(_uniswapV2Factory), _WETH);\r\n\r\n\t}\r\n\r\n\tfallback () external payable \r\n\t{}\r\n\r\n\treceive () external payable \r\n\t{}\r\n\r\n\tfunction ex1_showIHaveTokens()\r\n\tpublic\r\n\t{\r\n\t\trequire(dummyToken.balanceOf(msg.sender) > 0, \"You do not hold dummyTokens. Buy them on Uniswap\");\r\n\r\n\t\tif (!exerciceProgression[msg.sender][1])\r\n\t\t{\r\n\t\t\texerciceProgression[msg.sender][1] = true;\r\n\t\t\tTDAMM.distributeTokens(msg.sender, 2);\r\n\t\t}\r\n\r\n\t}\r\n\r\n\tfunction ex2_showIProvidedLiquidity()\r\n\tpublic\r\n\t{\r\n\t\t// Getting address from factory for pair dummyToken / WETH\r\n\t\t(address token0, address token1) = address(dummyToken) < WETH ? (address(dummyToken), WETH) : (WETH, address(dummyToken));\r\n\t\taddress dummyTokenAndWethPair = uniswapV2Factory.getPair(token0, token1);\r\n\r\n\t\t// Checking if caller holds LP token\r\n\t\tERC20 dummyTokenAndWethPairAsERC20 = ERC20(dummyTokenAndWethPair);\r\n\t\trequire(dummyTokenAndWethPairAsERC20.balanceOf(msg.sender) > 0, \"You do not hold liquidity in the required pool\");\r\n\t\tif (!exerciceProgression[msg.sender][2])\r\n\t\t{\r\n\t\t\texerciceProgression[msg.sender][2] = true;\r\n\t\t\tTDAMM.distributeTokens(msg.sender, 2);\r\n\t\t}\r\n\t}\r\n\r\n\tfunction ex6a_getTickerAndSupply()\r\n\tpublic\r\n\t{\r\n\t\tassignedSupply[msg.sender] = randomSupplies[nextValueStoreRank]*1000000000000000000;\r\n\t\t// assignedTicker[msg.sender] = bytes32ToString(randomTickers[nextValueStoreRank]);\r\n\t\tassignedTicker[msg.sender] = randomTickers[nextValueStoreRank];\r\n\r\n\t\tnextValueStoreRank += 1;\r\n\t\tif (nextValueStoreRank >= 20)\r\n\t\t{\r\n\t\t\tnextValueStoreRank = 0;\r\n\t\t}\r\n\r\n\t\t// Crediting points\r\n\t\tif (!exerciceProgression[msg.sender][5])\r\n\t\t{\r\n\t\t\texerciceProgression[msg.sender][5] = true;\r\n\t\t\tTDAMM.distributeTokens(msg.sender, 2);\r\n\t\t}\r\n\t}\r\n\r\n\tfunction ex6b_testErc20TickerAndSupply()\r\n\tpublic\r\n\t{\r\n\t\t// Checking ticker and supply were received\r\n\t\trequire(exerciceProgression[msg.sender][5]);\r\n\r\n\t\t// Checking ticker was set properly\r\n\t\trequire(_compareStrings(assignedTicker[msg.sender], studentErc20[msg.sender].symbol()), \"Incorrect ticker\");\r\n\t\t// Checking supply was set properly\r\n\t\trequire(assignedSupply[msg.sender] == studentErc20[msg.sender].totalSupply(), \"Incorrect supply\");\r\n\t\t// Checking some ERC20 functions were created\r\n\t\trequire(studentErc20[msg.sender].allowance(address(this), msg.sender) == 0, \"Allowance not implemented or incorrectly set\");\r\n\t\trequire(studentErc20[msg.sender].balanceOf(address(this)) == 0, \"BalanceOf not implemented or incorrectly set\");\r\n\t\trequire(studentErc20[msg.sender].approve(msg.sender, 10), \"Approve not implemented\");\r\n\t\r\n\t\t// Crediting points\r\n\t\tif (!exerciceProgression[msg.sender][6])\r\n\t\t{\r\n\t\t\texerciceProgression[msg.sender][6] = true;\r\n\t\t\t// Creating ERC20\r\n\t\t\tTDAMM.distributeTokens(msg.sender, 2);\r\n\t\t}\r\n\r\n\t}\r\n\r\n\tfunction ex7_tokenIsTradableOnUniswap()\r\n\tpublic\r\n\t{\r\n\t\t// Retrieving address of pair from library\r\n\t\t(address token0, address token1) = address(studentErc20[msg.sender]) < WETH ? (address(studentErc20[msg.sender]), WETH) : (WETH, address(studentErc20[msg.sender]));\r\n\t\taddress studentTokenAndWethPair = uniswapV2Factory.getPair(token0, token1);\r\n\r\n\t\trequire(studentTokenAndWethPair != address(0));\r\n\r\n\t\t// Crediting points\r\n\t\tif (!exerciceProgression[msg.sender][7])\r\n\t\t{\r\n\t\t\texerciceProgression[msg.sender][7] = true;\r\n\t\t\t// Creating ERC20\r\n\t\t\tTDAMM.distributeTokens(msg.sender, 5);\r\n\t\t}\r\n\r\n\t}\r\n\r\n\tfunction ex8_contractCanSwapVsEth()\r\n\tpublic\r\n\t{\r\n\t\t// Retrieving address of pair from library\r\n\t\t(address token0, address token1) = address(studentErc20[msg.sender]) < WETH ? (address(studentErc20[msg.sender]), WETH) : (WETH, address(studentErc20[msg.sender]));\r\n\t\taddress studentTokenAndWethPair = uniswapV2Factory.getPair(token0, token1);\r\n\r\n\t\t// Checking pair balance before calling exercice contract\r\n\t\tIUniswapV2Pair studentTokenAndWethPairInstance = IUniswapV2Pair(studentTokenAndWethPair);\r\n\t\t(uint112 reserve0, uint112 reserve1, ) = studentTokenAndWethPairInstance.getReserves();\r\n\r\n\t\t// Checking caller balance before executing contract\r\n\t\tuint initBalance = studentErc20[msg.sender].balanceOf(address(studentExercice[msg.sender]));\r\n\r\n\t\t// Calling student contract to tell him to provide liquidity\r\n\t\tstudentExercice[msg.sender].swapYourTokenForEth();\r\n\r\n\t\t// Checking pair balance after calling exercice contract\r\n\t\t(uint112 reserve3, uint112 reserve4,) = studentTokenAndWethPairInstance.getReserves();\r\n\t\trequire((reserve0 != reserve3) && (reserve1 != reserve4), \"No liquidity change in your token's pool\");\r\n\r\n\t\t// Checking your token balance after calling the exercice\r\n\t\tuint endBalance = studentErc20[msg.sender].balanceOf(address(studentExercice[msg.sender]));\r\n\t\trequire(initBalance != endBalance, \"You still have the same amount of tokens\");\r\n\r\n\t\t// Crediting points\r\n\t\tif (!exerciceProgression[msg.sender][8])\r\n\t\t{\r\n\t\t\texerciceProgression[msg.sender][8] = true;\r\n\t\t\t// Creating ERC20\r\n\t\t\tTDAMM.distributeTokens(msg.sender, 1);\r\n\t\t}\r\n\r\n\t}\r\n\r\n\tfunction ex9_contractCanSwapVsDummyToken()\r\n\tpublic\r\n\t{\r\n\t\t// Retrieving address of pair from library\r\n\t\t(address token0, address token1) = address(studentErc20[msg.sender]) < address(dummyToken) ? (address(studentErc20[msg.sender]), address(dummyToken)) : (address(dummyToken), address(studentErc20[msg.sender]));\r\n\t\taddress studentTokenAndWethPair = uniswapV2Factory.getPair(token0, token1);\r\n\r\n\t\t// Checking pair balance before calling exercice contract\r\n\t\tIUniswapV2Pair studentTokenAndWethPairInstance = IUniswapV2Pair(studentTokenAndWethPair);\r\n\t\t(uint112 reserve0, uint112 reserve1, ) = studentTokenAndWethPairInstance.getReserves();\r\n\t\t\r\n\t\t// Checking caller balance before executing contract\r\n\t\tuint initTokenBalance = studentErc20[msg.sender].balanceOf(address(studentExercice[msg.sender]));\r\n\t\tuint initDummyBalance = dummyToken.balanceOf(address(studentExercice[msg.sender]));\r\n\r\n\t\t// Calling student contract to tell him to provide liquidity\r\n\t\tstudentExercice[msg.sender].swapYourTokenForDummyToken();\r\n\r\n\t\t// Checking pair balance after calling exercice contract\r\n\t\t(uint112 reserve3, uint112 reserve4,) = studentTokenAndWethPairInstance.getReserves();\r\n\t\trequire((reserve0 != reserve3) && (reserve1 != reserve4), \"No liquidity change in your token's pool\");\r\n\r\n\t\t// Checking your token balance after calling the exercice\r\n\t\tuint endTokenBalance = studentErc20[msg.sender].balanceOf(address(studentExercice[msg.sender]));\r\n\t\trequire(initTokenBalance != endTokenBalance, \"You still have the same amount of your tokens\");\r\n\t\tuint endDummyBalance = dummyToken.balanceOf(address(studentExercice[msg.sender]));\r\n\t\trequire(initDummyBalance != endDummyBalance, \"You still have the same amount of dummy tokens\");\r\n\r\n\t\t// Crediting points\r\n\t\tif (!exerciceProgression[msg.sender][9])\r\n\t\t{\r\n\t\t\texerciceProgression[msg.sender][9] = true;\r\n\t\t\t// Creating ERC20\r\n\t\t\tTDAMM.distributeTokens(msg.sender, 2);\r\n\t\t}\r\n\r\n\t}\r\n\tfunction ex10_contractCanProvideLiquidity()\r\n\tpublic\r\n\t{\r\n\t\t// Retrieving address of pair from library\r\n\t\t(address token0, address token1) = address(studentErc20[msg.sender]) < WETH ? (address(studentErc20[msg.sender]), WETH) : (WETH, address(studentErc20[msg.sender]));\r\n\t\taddress studentTokenAndWethPair = uniswapV2Factory.getPair(token0, token1);\r\n\r\n\t\t// Checking pair balance before calling exercice contract\r\n\t\tIUniswapV2Pair studentTokenAndWethPairInstance = IUniswapV2Pair(studentTokenAndWethPair);\r\n\t\t(uint112 reserve0, uint112 reserve1, ) = studentTokenAndWethPairInstance.getReserves();\r\n\r\n\t\t// Calling student contract to tell him to provide liquidity\r\n\t\tstudentExercice[msg.sender].addLiquidity();\r\n\r\n\t\t// Checking pair balance after calling exercice contract\r\n\t\t(uint112 reserve3, uint112 reserve4,) = studentTokenAndWethPairInstance.getReserves();\r\n\r\n\t\trequire((reserve0 < reserve3) && (reserve1 < reserve4), \"No liquidity change in your token's pool\");\r\n\r\n\t\t// Crediting points\r\n\t\tif (!exerciceProgression[msg.sender][10])\r\n\t\t{\r\n\t\t\texerciceProgression[msg.sender][10] = true;\r\n\t\t\t// Creating ERC20\r\n\t\t\tTDAMM.distributeTokens(msg.sender, 2);\r\n\t\t}\r\n\r\n\t}\r\n\r\n\tfunction ex11_contractCanWithdrawLiquidity()\r\n\tpublic\r\n\t{\r\n\t\t// Retrieving address of pair from library\r\n\t\t(address token0, address token1) = address(studentErc20[msg.sender]) < WETH ? (address(studentErc20[msg.sender]), WETH) : (WETH, address(studentErc20[msg.sender]));\r\n\t\taddress studentTokenAndWethPair = uniswapV2Factory.getPair(token0, token1);\r\n\r\n\t\t// Checking pair balance before calling exercice contract\r\n\t\tIUniswapV2Pair studentTokenAndWethPairInstance = IUniswapV2Pair(studentTokenAndWethPair);\r\n\t\t(uint112 reserve0, uint112 reserve1, ) = studentTokenAndWethPairInstance.getReserves();\r\n\r\n\t\t// Calling student contract to tell him to provide liquidity\r\n\t\tstudentExercice[msg.sender].withdrawLiquidity();\r\n\r\n\t\t// Checking pair balance after calling exercice contract\r\n\t\t(uint112 reserve3, uint112 reserve4,) = studentTokenAndWethPairInstance.getReserves();\r\n\r\n\t\trequire((reserve0 > reserve3) && (reserve1 > reserve4), \"No liquidity change in your token's pool\");\r\n\r\n\t\t// Crediting points\r\n\t\tif (!exerciceProgression[msg.sender][11])\r\n\t\t{\r\n\t\t\texerciceProgression[msg.sender][11] = true;\r\n\t\t\t// Creating ERC20\r\n\t\t\tTDAMM.distributeTokens(msg.sender, 2);\r\n\t\t}\r\n\r\n\t}\r\n\r\n\r\n\tmodifier onlyTeachers() \r\n\t{\r\n\r\n\t    require(TDAMM.teachers(msg.sender));\r\n\t    _;\r\n\t}\r\n\r\n\tfunction submitExercice(IExerciceSolution studentExercice_)\r\n\tpublic\r\n\t{\r\n\t\t// Checking this contract was not used by another group before\r\n\t\trequire(!hasBeenPaired[address(studentExercice_)]);\r\n\r\n\t\t// Assigning passed ERC20 as student ERC20\r\n\t\tstudentExercice[msg.sender] = studentExercice_;\r\n\t\thasBeenPaired[address(studentExercice_)] = true;\r\n\t\t\t\r\n\t}\r\n\r\n\tfunction submitErc20(IRichERC20 studentErc20_)\r\n\tpublic\r\n\t{\r\n\t\t// Checking this contract was not used by another group before\r\n\t\trequire(!hasBeenPaired[address(studentErc20_)]);\r\n\t\t// Assigning passed ERC20 as student ERC20\r\n\t\tstudentErc20[msg.sender] = studentErc20_;\r\n\t\thasBeenPaired[address(studentErc20_)] = true;\r\n\t\t\t\r\n\t}\r\n\r\n\tfunction _compareStrings(string memory a, string memory b) \r\n\tinternal \r\n\tpure \r\n\treturns (bool) \r\n\t{\r\n    \treturn (keccak256(abi.encodePacked((a))) == keccak256(abi.encodePacked((b))));\r\n\t}\r\n\r\n\tfunction bytes32ToString(bytes32 _bytes32) \r\n\tpublic \r\n\tpure returns (string memory) \r\n\t{\r\n        uint8 i = 0;\r\n        while(i < 32 && _bytes32[i] != 0) {\r\n            i++;\r\n        }\r\n        bytes memory bytesArray = new bytes(i);\r\n        for (i = 0; i < 32 && _bytes32[i] != 0; i++) {\r\n            bytesArray[i] = _bytes32[i];\r\n        }\r\n        return string(bytesArray);\r\n    }\r\n\r\n\tfunction readTicker(address studentAddres)\r\n\tpublic\r\n\tview\r\n\treturns(string memory)\r\n\t{\r\n\t\treturn assignedTicker[studentAddres];\r\n\t}\r\n\r\n\tfunction readSupply(address studentAddres)\r\n\tpublic\r\n\tview\r\n\treturns(uint256)\r\n\t{\r\n\t\treturn assignedSupply[studentAddres];\r\n\t}\r\n\r\n\tfunction setRandomTickersAndSupply(uint256[20] memory _randomSupplies, string[20] memory _randomTickers) \r\n\tpublic \r\n\tonlyTeachers\r\n\t{\r\n\t\trandomSupplies = _randomSupplies;\r\n\t\trandomTickers = _randomTickers;\r\n\t\tnextValueStoreRank = 0;\r\n\t\tfor (uint i = 0; i < 20; i++)\r\n\t\t{\r\n\t\t\temit newRandomTickerAndSupply(randomTickers[i], randomSupplies[i]);\r\n\t\t}\r\n\t}\r\n\r\n\r\n\r\n\r\n}\r\n",
  "sourcePath": "C:\\Users\\blanp\\OneDrive - De Vinci\\Documents\\S8\\DeFi\\amm-101\\contracts\\Evaluator.sol",
  "compiler": {
    "name": "solc",
    "version": "0.6.2+commit.bacdbe57.Emscripten.clang"
  },
  "schemaVersion": "3.4.10",
  "updatedAt": "2023-02-06T16:02:26.316Z",
  "networkType": "ethereum",
  "devdoc": {
    "methods": {}
  },
  "userdoc": {
    "methods": {}
  }
}